{"abi":[{"type":"function","name":"agentRatings","inputs":[{"name":"","type":"address","internalType":"address"},{"name":"","type":"uint256","internalType":"uint256"}],"outputs":[{"name":"rater","type":"address","internalType":"address"},{"name":"score","type":"uint8","internalType":"uint8"},{"name":"comment","type":"string","internalType":"string"},{"name":"timestamp","type":"uint256","internalType":"uint256"}],"stateMutability":"view"},{"type":"function","name":"agents","inputs":[{"name":"","type":"address","internalType":"address"}],"outputs":[{"name":"name","type":"string","internalType":"string"},{"name":"capabilitiesCSV","type":"string","internalType":"string"},{"name":"metadataURI","type":"string","internalType":"string"},{"name":"registeredAt","type":"uint256","internalType":"uint256"},{"name":"active","type":"bool","internalType":"bool"}],"stateMutability":"view"},{"type":"function","name":"deactivateAgent","inputs":[],"outputs":[],"stateMutability":"nonpayable"},{"type":"function","name":"discoverAgents","inputs":[{"name":"limit","type":"uint256","internalType":"uint256"}],"outputs":[{"name":"agentAddresses","type":"address[]","internalType":"address[]"},{"name":"names","type":"string[]","internalType":"string[]"},{"name":"trustScores","type":"uint256[]","internalType":"uint256[]"}],"stateMutability":"view"},{"type":"function","name":"getAgent","inputs":[{"name":"agent","type":"address","internalType":"address"}],"outputs":[{"name":"name","type":"string","internalType":"string"},{"name":"capabilitiesCSV","type":"string","internalType":"string"},{"name":"metadataURI","type":"string","internalType":"string"},{"name":"registeredAt","type":"uint256","internalType":"uint256"},{"name":"active","type":"bool","internalType":"bool"},{"name":"trustScore","type":"uint256","internalType":"uint256"},{"name":"numRatings","type":"uint256","internalType":"uint256"}],"stateMutability":"view"},{"type":"function","name":"getAgentCount","inputs":[],"outputs":[{"name":"","type":"uint256","internalType":"uint256"}],"stateMutability":"view"},{"type":"function","name":"getAgentRatings","inputs":[{"name":"agent","type":"address","internalType":"address"},{"name":"limit","type":"uint256","internalType":"uint256"}],"outputs":[{"name":"","type":"tuple[]","internalType":"struct PayLobsterRegistry.Rating[]","components":[{"name":"rater","type":"address","internalType":"address"},{"name":"score","type":"uint8","internalType":"uint8"},{"name":"comment","type":"string","internalType":"string"},{"name":"timestamp","type":"uint256","internalType":"uint256"}]}],"stateMutability":"view"},{"type":"function","name":"getAllAgents","inputs":[],"outputs":[{"name":"","type":"address[]","internalType":"address[]"}],"stateMutability":"view"},{"type":"function","name":"getTrustScore","inputs":[{"name":"agent","type":"address","internalType":"address"}],"outputs":[{"name":"score","type":"uint256","internalType":"uint256"},{"name":"ratings","type":"uint256","internalType":"uint256"}],"stateMutability":"view"},{"type":"function","name":"rateAgent","inputs":[{"name":"agent","type":"address","internalType":"address"},{"name":"score","type":"uint8","internalType":"uint8"},{"name":"comment","type":"string","internalType":"string"}],"outputs":[],"stateMutability":"nonpayable"},{"type":"function","name":"ratingCount","inputs":[{"name":"","type":"address","internalType":"address"}],"outputs":[{"name":"","type":"uint256","internalType":"uint256"}],"stateMutability":"view"},{"type":"function","name":"registerAgent","inputs":[{"name":"name","type":"string","internalType":"string"},{"name":"capabilitiesCSV","type":"string","internalType":"string"},{"name":"metadataURI","type":"string","internalType":"string"}],"outputs":[],"stateMutability":"nonpayable"},{"type":"function","name":"registeredAgents","inputs":[{"name":"","type":"uint256","internalType":"uint256"}],"outputs":[{"name":"","type":"address","internalType":"address"}],"stateMutability":"view"},{"type":"function","name":"totalScore","inputs":[{"name":"","type":"address","internalType":"address"}],"outputs":[{"name":"","type":"uint256","internalType":"uint256"}],"stateMutability":"view"},{"type":"function","name":"updateAgent","inputs":[{"name":"name","type":"string","internalType":"string"},{"name":"capabilitiesCSV","type":"string","internalType":"string"},{"name":"metadataURI","type":"string","internalType":"string"}],"outputs":[],"stateMutability":"nonpayable"},{"type":"event","name":"AgentDeactivated","inputs":[{"name":"agent","type":"address","indexed":true,"internalType":"address"}],"anonymous":false},{"type":"event","name":"AgentRated","inputs":[{"name":"agent","type":"address","indexed":true,"internalType":"address"},{"name":"rater","type":"address","indexed":true,"internalType":"address"},{"name":"score","type":"uint8","indexed":false,"internalType":"uint8"},{"name":"comment","type":"string","indexed":false,"internalType":"string"}],"anonymous":false},{"type":"event","name":"AgentRegistered","inputs":[{"name":"agent","type":"address","indexed":true,"internalType":"address"},{"name":"name","type":"string","indexed":false,"internalType":"string"},{"name":"capabilitiesCSV","type":"string","indexed":false,"internalType":"string"}],"anonymous":false},{"type":"event","name":"AgentUpdated","inputs":[{"name":"agent","type":"address","indexed":true,"internalType":"address"},{"name":"name","type":"string","indexed":false,"internalType":"string"},{"name":"capabilitiesCSV","type":"string","indexed":false,"internalType":"string"}],"anonymous":false}],"bytecode":{"object":"0x6080604052348015600e575f5ffd5b50612ec88061001c5f395ff3fe608060405234801561000f575f5ffd5b50600436106100f3575f3560e01c8063733ee9d2116100955780639a4fbf5b116100645780639a4fbf5b146102ad578063a7bd211c146102b7578063fb3551ff146102e7578063fd66091e1461031d576100f3565b8063733ee9d21461020e57806384eda66214610241578063860e4ac61461027157806391cab63e1461028f576100f3565b80633d8c94b4116100d15780633d8c94b41461015f57806356a2d660146101915780635e09eea1146101ad5780636d5f0da3146101de576100f3565b806318e859ee146100f75780632404165e1461011357806331fa9b8414610143575b5f5ffd5b610111600480360381019061010c9190611c60565b610351565b005b61012d60048036038101906101289190611d6a565b610524565b60405161013a9190611dad565b60405180910390f35b61015d60048036038101906101589190611dfc565b610539565b005b61017960048036038101906101749190611e97565b610906565b6040516101889392919061215b565b60405180910390f35b6101ab60048036038101906101a69190611c60565b610d5f565b005b6101c760048036038101906101c29190611d6a565b6110cc565b6040516101d59291906121a5565b60405180910390f35b6101f860048036038101906101f391906121cc565b6111fd565b6040516102059190612334565b60405180910390f35b610228600480360381019061022391906121cc565b611444565b60405161023894939291906123ba565b60405180910390f35b61025b60048036038101906102569190611d6a565b61153b565b6040516102689190611dad565b60405180910390f35b610279611550565b6040516102869190612404565b60405180910390f35b6102976115db565b6040516102a49190611dad565b60405180910390f35b6102b56115e7565b005b6102d160048036038101906102cc9190611e97565b61170d565b6040516102de9190612424565b60405180910390f35b61030160048036038101906102fc9190611d6a565b611748565b6040516103149796959493929190612457565b60405180910390f35b61033760048036038101906103329190611d6a565b6119ea565b6040516103489594939291906124d9565b60405180910390f35b5f5f3373ffffffffffffffffffffffffffffffffffffffff1673ffffffffffffffffffffffffffffffffffffffff1681526020019081526020015f206004015f9054906101000a900460ff166103dc576040517f08c379a00000000000000000000000000000000000000000000000000000000081526004016103d390612589565b60405180910390fd5b85855f5f3373ffffffffffffffffffffffffffffffffffffffff1673ffffffffffffffffffffffffffffffffffffffff1681526020019081526020015f205f0191826104299291906127ec565b5083835f5f3373ffffffffffffffffffffffffffffffffffffffff1673ffffffffffffffffffffffffffffffffffffffff1681526020019081526020015f2060010191826104789291906127ec565b5081815f5f3373ffffffffffffffffffffffffffffffffffffffff1673ffffffffffffffffffffffffffffffffffffffff1681526020019081526020015f2060020191826104c79291906127ec565b503373ffffffffffffffffffffffffffffffffffffffff167fa2c9530e3d0bc4c899db52361ec84bcc1c9f87a5b7d1b584b3de374f36d7a1898787878760405161051494939291906128f3565b60405180910390a2505050505050565b6003602052805f5260405f205f915090505481565b5f5f8573ffffffffffffffffffffffffffffffffffffffff1673ffffffffffffffffffffffffffffffffffffffff1681526020019081526020015f206004015f9054906101000a900460ff166105c4576040517f08c379a00000000000000000000000000000000000000000000000000000000081526004016105bb90612976565b60405180910390fd5b60018360ff16101580156105dc575060058360ff1611155b61061b576040517f08c379a0000000000000000000000000000000000000000000000000000000008152600401610612906129de565b60405180910390fd5b8373ffffffffffffffffffffffffffffffffffffffff163373ffffffffffffffffffffffffffffffffffffffff1603610689576040517f08c379a000000000000000000000000000000000000000000000000000000000815260040161068090612a46565b60405180910390fd5b60015f8573ffffffffffffffffffffffffffffffffffffffff1673ffffffffffffffffffffffffffffffffffffffff1681526020019081526020015f2060405180608001604052803373ffffffffffffffffffffffffffffffffffffffff1681526020018560ff16815260200184848080601f0160208091040260200160405190810160405280939291908181526020018383808284375f81840152601f19601f82011690508083019250505050505050815260200142815250908060018154018082558091505060019003905f5260205f2090600302015f909190919091505f820151815f015f6101000a81548173ffffffffffffffffffffffffffffffffffffffff021916908373ffffffffffffffffffffffffffffffffffffffff1602179055506020820151815f0160146101000a81548160ff021916908360ff16021790555060408201518160010190816107e29190612a64565b506060820151816002015550508260ff1660025f8673ffffffffffffffffffffffffffffffffffffffff1673ffffffffffffffffffffffffffffffffffffffff1681526020019081526020015f205f82825461083e9190612b60565b9250508190555060035f8573ffffffffffffffffffffffffffffffffffffffff1673ffffffffffffffffffffffffffffffffffffffff1681526020019081526020015f205f81548092919061089290612b93565b91905055503373ffffffffffffffffffffffffffffffffffffffff168473ffffffffffffffffffffffffffffffffffffffff167fb238aabd2f55ee73bad6fd4e92fc3fb898e7e6e63893b262b181b29e9c064eb18585856040516108f893929190612bda565b60405180910390a350505050565b60608060605f846004805490501061091e5784610925565b6004805490505b90508067ffffffffffffffff811115610941576109406125b1565b5b60405190808252806020026020018201604052801561096f5781602001602082028036833780820191505090505b5093508067ffffffffffffffff81111561098c5761098b6125b1565b5b6040519080825280602002602001820160405280156109bf57816020015b60608152602001906001900390816109aa5790505b5092508067ffffffffffffffff8111156109dc576109db6125b1565b5b604051908082528060200260200182016040528015610a0a5781602001602082028036833780820191505090505b5091505f5f90505f5f90505b60048054905081108015610a2957508282105b15610d55575f5f60048381548110610a4457610a43612c0a565b5b905f5260205f20015f9054906101000a900473ffffffffffffffffffffffffffffffffffffffff1673ffffffffffffffffffffffffffffffffffffffff1673ffffffffffffffffffffffffffffffffffffffff1681526020019081526020015f206004015f9054906101000a900460ff1615610d425760048181548110610ace57610acd612c0a565b5b905f5260205f20015f9054906101000a900473ffffffffffffffffffffffffffffffffffffffff16868381518110610b0957610b08612c0a565b5b602002602001019073ffffffffffffffffffffffffffffffffffffffff16908173ffffffffffffffffffffffffffffffffffffffff16815250505f5f60048381548110610b5957610b58612c0a565b5b905f5260205f20015f9054906101000a900473ffffffffffffffffffffffffffffffffffffffff1673ffffffffffffffffffffffffffffffffffffffff1673ffffffffffffffffffffffffffffffffffffffff1681526020019081526020015f205f018054610bc79061260b565b80601f0160208091040260200160405190810160405280929190818152602001828054610bf39061260b565b8015610c3e5780601f10610c1557610100808354040283529160200191610c3e565b820191905f5260205f20905b815481529060010190602001808311610c2157829003601f168201915b5050505050858381518110610c5657610c55612c0a565b5b60200260200101819052503073ffffffffffffffffffffffffffffffffffffffff16635e09eea160048381548110610c9157610c90612c0a565b5b905f5260205f20015f9054906101000a900473ffffffffffffffffffffffffffffffffffffffff166040518263ffffffff1660e01b8152600401610cd59190612424565b6040805180830381865afa158015610cef573d5f5f3e3d5ffd5b505050506040513d601f19601f82011682018060405250810190610d139190612c4b565b50848381518110610d2757610d26612c0a565b5b6020026020010181815250508180610d3e90612b93565b9250505b8080610d4d90612b93565b915050610a16565b5050509193909250565b5f8686905011610da4576040517f08c379a0000000000000000000000000000000000000000000000000000000008152600401610d9b90612cd3565b60405180910390fd5b5f8484905011610de9576040517f08c379a0000000000000000000000000000000000000000000000000000000008152600401610de090612d3b565b60405180910390fd5b5f5f3373ffffffffffffffffffffffffffffffffffffffff1673ffffffffffffffffffffffffffffffffffffffff1681526020019081526020015f206004015f9054906101000a900460ff1615610e75576040517f08c379a0000000000000000000000000000000000000000000000000000000008152600401610e6c90612da3565b60405180910390fd5b6040518060a0016040528087878080601f0160208091040260200160405190810160405280939291908181526020018383808284375f81840152601f19601f82011690508083019250505050505050815260200185858080601f0160208091040260200160405190810160405280939291908181526020018383808284375f81840152601f19601f82011690508083019250505050505050815260200183838080601f0160208091040260200160405190810160405280939291908181526020018383808284375f81840152601f19601f820116905080830192505050505050508152602001428152602001600115158152505f5f3373ffffffffffffffffffffffffffffffffffffffff1673ffffffffffffffffffffffffffffffffffffffff1681526020019081526020015f205f820151815f019081610fb79190612a64565b506020820151816001019081610fcd9190612a64565b506040820151816002019081610fe39190612a64565b50606082015181600301556080820151816004015f6101000a81548160ff021916908315150217905550905050600433908060018154018082558091505060019003905f5260205f20015f9091909190916101000a81548173ffffffffffffffffffffffffffffffffffffffff021916908373ffffffffffffffffffffffffffffffffffffffff1602179055503373ffffffffffffffffffffffffffffffffffffffff167f37b3aaf4f807403887412a5994aa1832eface4a8c15501a3311bf21d3279ea3f878787876040516110bc94939291906128f3565b60405180910390a2505050505050565b5f5f5f60035f8573ffffffffffffffffffffffffffffffffffffffff1673ffffffffffffffffffffffffffffffffffffffff1681526020019081526020015f20540361111e5760325f915091506111f8565b5f60035f8573ffffffffffffffffffffffffffffffffffffffff1673ffffffffffffffffffffffffffffffffffffffff1681526020019081526020015f2054601460025f8773ffffffffffffffffffffffffffffffffffffffff1673ffffffffffffffffffffffffffffffffffffffff1681526020019081526020015f20546111a79190612dc1565b6111b19190612e2f565b90508060035f8673ffffffffffffffffffffffffffffffffffffffff1673ffffffffffffffffffffffffffffffffffffffff1681526020019081526020015f205492509250505b915091565b60605f60015f8573ffffffffffffffffffffffffffffffffffffffff1673ffffffffffffffffffffffffffffffffffffffff1681526020019081526020015f2090505f838280549050106112515783611257565b81805490505b90505f8167ffffffffffffffff811115611274576112736125b1565b5b6040519080825280602002602001820160405280156112ad57816020015b61129a611bb9565b8152602001906001900390816112925790505b5090505f5f90505b82811015611437578381600186805490506112d09190612e5f565b6112da9190612e5f565b815481106112eb576112ea612c0a565b5b905f5260205f2090600302016040518060800160405290815f82015f9054906101000a900473ffffffffffffffffffffffffffffffffffffffff1673ffffffffffffffffffffffffffffffffffffffff1673ffffffffffffffffffffffffffffffffffffffff1681526020015f820160149054906101000a900460ff1660ff1660ff1681526020016001820180546113829061260b565b80601f01602080910402602001604051908101604052809291908181526020018280546113ae9061260b565b80156113f95780601f106113d0576101008083540402835291602001916113f9565b820191905f5260205f20905b8154815290600101906020018083116113dc57829003601f168201915b5050505050815260200160028201548152505082828151811061141f5761141e612c0a565b5b602002602001018190525080806001019150506112b5565b5080935050505092915050565b6001602052815f5260405f20818154811061145d575f80fd5b905f5260205f2090600302015f9150915050805f015f9054906101000a900473ffffffffffffffffffffffffffffffffffffffff1690805f0160149054906101000a900460ff16908060010180546114b49061260b565b80601f01602080910402602001604051908101604052809291908181526020018280546114e09061260b565b801561152b5780601f106115025761010080835404028352916020019161152b565b820191905f5260205f20905b81548152906001019060200180831161150e57829003601f168201915b5050505050908060020154905084565b6002602052805f5260405f205f915090505481565b606060048054806020026020016040519081016040528092919081815260200182805480156115d157602002820191905f5260205f20905b815f9054906101000a900473ffffffffffffffffffffffffffffffffffffffff1673ffffffffffffffffffffffffffffffffffffffff1681526020019060010190808311611588575b5050505050905090565b5f600480549050905090565b5f5f3373ffffffffffffffffffffffffffffffffffffffff1673ffffffffffffffffffffffffffffffffffffffff1681526020019081526020015f206004015f9054906101000a900460ff16611672576040517f08c379a000000000000000000000000000000000000000000000000000000000815260040161166990612589565b60405180910390fd5b5f5f5f3373ffffffffffffffffffffffffffffffffffffffff1673ffffffffffffffffffffffffffffffffffffffff1681526020019081526020015f206004015f6101000a81548160ff0219169083151502179055503373ffffffffffffffffffffffffffffffffffffffff167fa58c733780f5c1527d6106ff1e731cbf2e9ffc0eb11ad399ca33ea55f057ddf460405160405180910390a2565b6004818154811061171c575f80fd5b905f5260205f20015f915054906101000a900473ffffffffffffffffffffffffffffffffffffffff1681565b60608060605f5f5f5f5f5f5f8a73ffffffffffffffffffffffffffffffffffffffff1673ffffffffffffffffffffffffffffffffffffffff1681526020019081526020015f2090505f5f3073ffffffffffffffffffffffffffffffffffffffff16635e09eea18c6040518263ffffffff1660e01b81526004016117cb9190612424565b6040805180830381865afa1580156117e5573d5f5f3e3d5ffd5b505050506040513d601f19601f820116820180604052508101906118099190612c4b565b91509150825f0183600101846002018560030154866004015f9054906101000a900460ff16868686805461183c9061260b565b80601f01602080910402602001604051908101604052809291908181526020018280546118689061260b565b80156118b35780601f1061188a576101008083540402835291602001916118b3565b820191905f5260205f20905b81548152906001019060200180831161189657829003601f168201915b505050505096508580546118c69061260b565b80601f01602080910402602001604051908101604052809291908181526020018280546118f29061260b565b801561193d5780601f106119145761010080835404028352916020019161193d565b820191905f5260205f20905b81548152906001019060200180831161192057829003601f168201915b505050505095508480546119509061260b565b80601f016020809104026020016040519081016040528092919081815260200182805461197c9061260b565b80156119c75780601f1061199e576101008083540402835291602001916119c7565b820191905f5260205f20905b8154815290600101906020018083116119aa57829003601f168201915b505050505094509950995099509950995099509950505050919395979092949650565b5f602052805f5260405f205f91509050805f018054611a089061260b565b80601f0160208091040260200160405190810160405280929190818152602001828054611a349061260b565b8015611a7f5780601f10611a5657610100808354040283529160200191611a7f565b820191905f5260205f20905b815481529060010190602001808311611a6257829003601f168201915b505050505090806001018054611a949061260b565b80601f0160208091040260200160405190810160405280929190818152602001828054611ac09061260b565b8015611b0b5780601f10611ae257610100808354040283529160200191611b0b565b820191905f5260205f20905b815481529060010190602001808311611aee57829003601f168201915b505050505090806002018054611b209061260b565b80601f0160208091040260200160405190810160405280929190818152602001828054611b4c9061260b565b8015611b975780601f10611b6e57610100808354040283529160200191611b97565b820191905f5260205f20905b815481529060010190602001808311611b7a57829003601f168201915b505050505090806003015490806004015f9054906101000a900460ff16905085565b60405180608001604052805f73ffffffffffffffffffffffffffffffffffffffff1681526020015f60ff168152602001606081526020015f81525090565b5f5ffd5b5f5ffd5b5f5ffd5b5f5ffd5b5f5ffd5b5f5f83601f840112611c2057611c1f611bff565b5b8235905067ffffffffffffffff811115611c3d57611c3c611c03565b5b602083019150836001820283011115611c5957611c58611c07565b5b9250929050565b5f5f5f5f5f5f60608789031215611c7a57611c79611bf7565b5b5f87013567ffffffffffffffff811115611c9757611c96611bfb565b5b611ca389828a01611c0b565b9650965050602087013567ffffffffffffffff811115611cc657611cc5611bfb565b5b611cd289828a01611c0b565b9450945050604087013567ffffffffffffffff811115611cf557611cf4611bfb565b5b611d0189828a01611c0b565b92509250509295509295509295565b5f73ffffffffffffffffffffffffffffffffffffffff82169050919050565b5f611d3982611d10565b9050919050565b611d4981611d2f565b8114611d53575f5ffd5b50565b5f81359050611d6481611d40565b92915050565b5f60208284031215611d7f57611d7e611bf7565b5b5f611d8c84828501611d56565b91505092915050565b5f819050919050565b611da781611d95565b82525050565b5f602082019050611dc05f830184611d9e565b92915050565b5f60ff82169050919050565b611ddb81611dc6565b8114611de5575f5ffd5b50565b5f81359050611df681611dd2565b92915050565b5f5f5f5f60608587031215611e1457611e13611bf7565b5b5f611e2187828801611d56565b9450506020611e3287828801611de8565b935050604085013567ffffffffffffffff811115611e5357611e52611bfb565b5b611e5f87828801611c0b565b925092505092959194509250565b611e7681611d95565b8114611e80575f5ffd5b50565b5f81359050611e9181611e6d565b92915050565b5f60208284031215611eac57611eab611bf7565b5b5f611eb984828501611e83565b91505092915050565b5f81519050919050565b5f82825260208201905092915050565b5f819050602082019050919050565b611ef481611d2f565b82525050565b5f611f058383611eeb565b60208301905092915050565b5f602082019050919050565b5f611f2782611ec2565b611f318185611ecc565b9350611f3c83611edc565b805f5b83811015611f6c578151611f538882611efa565b9750611f5e83611f11565b925050600181019050611f3f565b5085935050505092915050565b5f81519050919050565b5f82825260208201905092915050565b5f819050602082019050919050565b5f81519050919050565b5f82825260208201905092915050565b8281835e5f83830152505050565b5f601f19601f8301169050919050565b5f611fe482611fa2565b611fee8185611fac565b9350611ffe818560208601611fbc565b61200781611fca565b840191505092915050565b5f61201d8383611fda565b905092915050565b5f602082019050919050565b5f61203b82611f79565b6120458185611f83565b93508360208202850161205785611f93565b805f5b8581101561209257848403895281516120738582612012565b945061207e83612025565b925060208a0199505060018101905061205a565b50829750879550505050505092915050565b5f81519050919050565b5f82825260208201905092915050565b5f819050602082019050919050565b6120d681611d95565b82525050565b5f6120e783836120cd565b60208301905092915050565b5f602082019050919050565b5f612109826120a4565b61211381856120ae565b935061211e836120be565b805f5b8381101561214e57815161213588826120dc565b9750612140836120f3565b925050600181019050612121565b5085935050505092915050565b5f6060820190508181035f8301526121738186611f1d565b905081810360208301526121878185612031565b9050818103604083015261219b81846120ff565b9050949350505050565b5f6040820190506121b85f830185611d9e565b6121c56020830184611d9e565b9392505050565b5f5f604083850312156121e2576121e1611bf7565b5b5f6121ef85828601611d56565b925050602061220085828601611e83565b9150509250929050565b5f81519050919050565b5f82825260208201905092915050565b5f819050602082019050919050565b61223c81611dc6565b82525050565b5f608083015f8301516122575f860182611eeb565b50602083015161226a6020860182612233565b50604083015184820360408601526122828282611fda565b915050606083015161229760608601826120cd565b508091505092915050565b5f6122ad8383612242565b905092915050565b5f602082019050919050565b5f6122cb8261220a565b6122d58185612214565b9350836020820285016122e785612224565b805f5b85811015612322578484038952815161230385826122a2565b945061230e836122b5565b925060208a019950506001810190506122ea565b50829750879550505050505092915050565b5f6020820190508181035f83015261234c81846122c1565b905092915050565b61235d81611d2f565b82525050565b61236c81611dc6565b82525050565b5f82825260208201905092915050565b5f61238c82611fa2565b6123968185612372565b93506123a6818560208601611fbc565b6123af81611fca565b840191505092915050565b5f6080820190506123cd5f830187612354565b6123da6020830186612363565b81810360408301526123ec8185612382565b90506123fb6060830184611d9e565b95945050505050565b5f6020820190508181035f83015261241c8184611f1d565b905092915050565b5f6020820190506124375f830184612354565b92915050565b5f8115159050919050565b6124518161243d565b82525050565b5f60e0820190508181035f83015261246f818a612382565b905081810360208301526124838189612382565b905081810360408301526124978188612382565b90506124a66060830187611d9e565b6124b36080830186612448565b6124c060a0830185611d9e565b6124cd60c0830184611d9e565b98975050505050505050565b5f60a0820190508181035f8301526124f18188612382565b905081810360208301526125058187612382565b905081810360408301526125198186612382565b90506125286060830185611d9e565b6125356080830184612448565b9695505050505050565b7f4e6f7420726567697374657265640000000000000000000000000000000000005f82015250565b5f612573600e83612372565b915061257e8261253f565b602082019050919050565b5f6020820190508181035f8301526125a081612567565b9050919050565b5f82905092915050565b7f4e487b71000000000000000000000000000000000000000000000000000000005f52604160045260245ffd5b7f4e487b71000000000000000000000000000000000000000000000000000000005f52602260045260245ffd5b5f600282049050600182168061262257607f821691505b602082108103612635576126346125de565b5b50919050565b5f819050815f5260205f209050919050565b5f6020601f8301049050919050565b5f82821b905092915050565b5f600883026126977fffffffffffffffffffffffffffffffffffffffffffffffffffffffffffffffff8261265c565b6126a1868361265c565b95508019841693508086168417925050509392505050565b5f819050919050565b5f6126dc6126d76126d284611d95565b6126b9565b611d95565b9050919050565b5f819050919050565b6126f5836126c2565b612709612701826126e3565b848454612668565b825550505050565b5f5f905090565b612720612711565b61272b8184846126ec565b505050565b5f5b82811015612751576127465f828401612718565b600181019050612732565b505050565b601f8211156127a457828211156127a3576127708161263b565b6127798361264d565b6127828561264d565b602086101561278f575f90505b80830161279e82840382612730565b505050505b5b505050565b5f82821c905092915050565b5f6127c45f19846008026127a9565b1980831691505092915050565b5f6127dc83836127b5565b9150826002028217905092915050565b6127f683836125a7565b67ffffffffffffffff81111561280f5761280e6125b1565b5b612819825461260b565b612824828285612756565b5f601f831160018114612851575f841561283f578287013590505b61284985826127d1565b8655506128b0565b601f19841661285f8661263b565b5f5b8281101561288657848901358255600182019150602085019450602081019050612861565b868310156128a3578489013561289f601f8916826127b5565b8355505b6001600288020188555050505b50505050505050565b828183375f83830152505050565b5f6128d28385612372565b93506128df8385846128b9565b6128e883611fca565b840190509392505050565b5f6040820190508181035f83015261290c8186886128c7565b905081810360208301526129218184866128c7565b905095945050505050565b7f4167656e74206e6f7420726567697374657265640000000000000000000000005f82015250565b5f612960601483612372565b915061296b8261292c565b602082019050919050565b5f6020820190508181035f83015261298d81612954565b9050919050565b7f53636f7265206d75737420626520312d350000000000000000000000000000005f82015250565b5f6129c8601183612372565b91506129d382612994565b602082019050919050565b5f6020820190508181035f8301526129f5816129bc565b9050919050565b7f43616e6e6f74207261746520796f757273656c660000000000000000000000005f82015250565b5f612a30601483612372565b9150612a3b826129fc565b602082019050919050565b5f6020820190508181035f830152612a5d81612a24565b9050919050565b612a6d82611fa2565b67ffffffffffffffff811115612a8657612a856125b1565b5b612a90825461260b565b612a9b828285612756565b5f60209050601f831160018114612acc575f8415612aba578287015190505b612ac485826127d1565b865550612b2b565b601f198416612ada8661263b565b5f5b82811015612b0157848901518255600182019150602085019450602081019050612adc565b86831015612b1e5784890151612b1a601f8916826127b5565b8355505b6001600288020188555050505b505050505050565b7f4e487b71000000000000000000000000000000000000000000000000000000005f52601160045260245ffd5b5f612b6a82611d95565b9150612b7583611d95565b9250828201905080821115612b8d57612b8c612b33565b5b92915050565b5f612b9d82611d95565b91507fffffffffffffffffffffffffffffffffffffffffffffffffffffffffffffffff8203612bcf57612bce612b33565b5b600182019050919050565b5f604082019050612bed5f830186612363565b8181036020830152612c008184866128c7565b9050949350505050565b7f4e487b71000000000000000000000000000000000000000000000000000000005f52603260045260245ffd5b5f81519050612c4581611e6d565b92915050565b5f5f60408385031215612c6157612c60611bf7565b5b5f612c6e85828601612c37565b9250506020612c7f85828601612c37565b9150509250929050565b7f4e616d65207265717569726564000000000000000000000000000000000000005f82015250565b5f612cbd600d83612372565b9150612cc882612c89565b602082019050919050565b5f6020820190508181035f830152612cea81612cb1565b9050919050565b7f4174206c65617374206f6e65206361706162696c6974792072657175697265645f82015250565b5f612d25602083612372565b9150612d3082612cf1565b602082019050919050565b5f6020820190508181035f830152612d5281612d19565b9050919050565b7f416c7265616479207265676973746572656400000000000000000000000000005f82015250565b5f612d8d601283612372565b9150612d9882612d59565b602082019050919050565b5f6020820190508181035f830152612dba81612d81565b9050919050565b5f612dcb82611d95565b9150612dd683611d95565b9250828202612de481611d95565b91508282048414831517612dfb57612dfa612b33565b5b5092915050565b7f4e487b71000000000000000000000000000000000000000000000000000000005f52601260045260245ffd5b5f612e3982611d95565b9150612e4483611d95565b925082612e5457612e53612e02565b5b828204905092915050565b5f612e6982611d95565b9150612e7483611d95565b9250828203905081811115612e8c57612e8b612b33565b5b9291505056fea26469706673582212207415b44bb82f44160821142fd9b3aac93ca86d97efd9fb788fa3c95499b0bf9d64736f6c63430008210033","linkReferences":{}},"methodIdentifiers":{"agentRatings(address,uint256)":"733ee9d2","agents(address)":"fd66091e","deactivateAgent()":"9a4fbf5b","discoverAgents(uint256)":"3d8c94b4","getAgent(address)":"fb3551ff","getAgentCount()":"91cab63e","getAgentRatings(address,uint256)":"6d5f0da3","getAllAgents()":"860e4ac6","getTrustScore(address)":"5e09eea1","rateAgent(address,uint8,string)":"31fa9b84","ratingCount(address)":"2404165e","registerAgent(string,string,string)":"56a2d660","registeredAgents(uint256)":"a7bd211c","totalScore(address)":"84eda662","updateAgent(string,string,string)":"18e859ee"},"id":6}