{"abi":[{"type":"constructor","inputs":[{"name":"_usdc","type":"address","internalType":"address"},{"name":"_arbiter","type":"address","internalType":"address"}],"stateMutability":"nonpayable"},{"type":"function","name":"arbiter","inputs":[],"outputs":[{"name":"","type":"address","internalType":"address"}],"stateMutability":"view"},{"type":"function","name":"createEscrow","inputs":[{"name":"seller","type":"address","internalType":"address"},{"name":"amount","type":"uint256","internalType":"uint256"},{"name":"description","type":"string","internalType":"string"},{"name":"deadline","type":"uint256","internalType":"uint256"}],"outputs":[{"name":"escrowId","type":"uint256","internalType":"uint256"}],"stateMutability":"nonpayable"},{"type":"function","name":"disputeEscrow","inputs":[{"name":"escrowId","type":"uint256","internalType":"uint256"}],"outputs":[],"stateMutability":"nonpayable"},{"type":"function","name":"escrowCount","inputs":[],"outputs":[{"name":"","type":"uint256","internalType":"uint256"}],"stateMutability":"view"},{"type":"function","name":"escrows","inputs":[{"name":"","type":"uint256","internalType":"uint256"}],"outputs":[{"name":"buyer","type":"address","internalType":"address"},{"name":"seller","type":"address","internalType":"address"},{"name":"amount","type":"uint256","internalType":"uint256"},{"name":"status","type":"uint8","internalType":"enum PayLobsterEscrow.EscrowStatus"},{"name":"description","type":"string","internalType":"string"},{"name":"createdAt","type":"uint256","internalType":"uint256"},{"name":"deadline","type":"uint256","internalType":"uint256"}],"stateMutability":"view"},{"type":"function","name":"getEscrow","inputs":[{"name":"escrowId","type":"uint256","internalType":"uint256"}],"outputs":[{"name":"buyer","type":"address","internalType":"address"},{"name":"seller","type":"address","internalType":"address"},{"name":"amount","type":"uint256","internalType":"uint256"},{"name":"status","type":"uint8","internalType":"enum PayLobsterEscrow.EscrowStatus"},{"name":"description","type":"string","internalType":"string"},{"name":"createdAt","type":"uint256","internalType":"uint256"},{"name":"deadline","type":"uint256","internalType":"uint256"}],"stateMutability":"view"},{"type":"function","name":"refundEscrow","inputs":[{"name":"escrowId","type":"uint256","internalType":"uint256"}],"outputs":[],"stateMutability":"nonpayable"},{"type":"function","name":"releaseEscrow","inputs":[{"name":"escrowId","type":"uint256","internalType":"uint256"}],"outputs":[],"stateMutability":"nonpayable"},{"type":"function","name":"resolveDispute","inputs":[{"name":"escrowId","type":"uint256","internalType":"uint256"},{"name":"releaseToSeller","type":"bool","internalType":"bool"}],"outputs":[],"stateMutability":"nonpayable"},{"type":"function","name":"setArbiter","inputs":[{"name":"newArbiter","type":"address","internalType":"address"}],"outputs":[],"stateMutability":"nonpayable"},{"type":"function","name":"usdc","inputs":[],"outputs":[{"name":"","type":"address","internalType":"contract IERC20"}],"stateMutability":"view"},{"type":"event","name":"DisputeResolved","inputs":[{"name":"id","type":"uint256","indexed":true,"internalType":"uint256"},{"name":"winner","type":"address","indexed":true,"internalType":"address"},{"name":"amount","type":"uint256","indexed":false,"internalType":"uint256"}],"anonymous":false},{"type":"event","name":"EscrowCreated","inputs":[{"name":"id","type":"uint256","indexed":true,"internalType":"uint256"},{"name":"buyer","type":"address","indexed":true,"internalType":"address"},{"name":"seller","type":"address","indexed":true,"internalType":"address"},{"name":"amount","type":"uint256","indexed":false,"internalType":"uint256"},{"name":"description","type":"string","indexed":false,"internalType":"string"}],"anonymous":false},{"type":"event","name":"EscrowDisputed","inputs":[{"name":"id","type":"uint256","indexed":true,"internalType":"uint256"},{"name":"disputer","type":"address","indexed":true,"internalType":"address"}],"anonymous":false},{"type":"event","name":"EscrowRefunded","inputs":[{"name":"id","type":"uint256","indexed":true,"internalType":"uint256"},{"name":"buyer","type":"address","indexed":true,"internalType":"address"},{"name":"amount","type":"uint256","indexed":false,"internalType":"uint256"}],"anonymous":false},{"type":"event","name":"EscrowReleased","inputs":[{"name":"id","type":"uint256","indexed":true,"internalType":"uint256"},{"name":"seller","type":"address","indexed":true,"internalType":"address"},{"name":"amount","type":"uint256","indexed":false,"internalType":"uint256"}],"anonymous":false},{"type":"error","name":"AddressEmptyCode","inputs":[{"name":"target","type":"address","internalType":"address"}]},{"type":"error","name":"AddressInsufficientBalance","inputs":[{"name":"account","type":"address","internalType":"address"}]},{"type":"error","name":"FailedInnerCall","inputs":[]},{"type":"error","name":"ReentrancyGuardReentrantCall","inputs":[]},{"type":"error","name":"SafeERC20FailedOperation","inputs":[{"name":"token","type":"address","internalType":"address"}]}],"bytecode":{"object":"0x60a060405234801561000f575f5ffd5b5060405161256938038061256983398181016040528101906100319190610111565b60015f819055508173ffffffffffffffffffffffffffffffffffffffff1660808173ffffffffffffffffffffffffffffffffffffffff16815250508060035f6101000a81548173ffffffffffffffffffffffffffffffffffffffff021916908373ffffffffffffffffffffffffffffffffffffffff160217905550505061014f565b5f5ffd5b5f73ffffffffffffffffffffffffffffffffffffffff82169050919050565b5f6100e0826100b7565b9050919050565b6100f0816100d6565b81146100fa575f5ffd5b50565b5f8151905061010b816100e7565b92915050565b5f5f60408385031215610127576101266100b3565b5b5f610134858286016100fd565b9250506020610145858286016100fd565b9150509250929050565b6080516123df61018a5f395f818161058f0152818161065701528181610918015281816109e001528181610b31015261125201526123df5ff3fe608060405234801561000f575f5ffd5b50600436106100a7575f3560e01c806366e3aad61161006f57806366e3aad614610153578063675ac67a146101835780637d19e596146101a1578063b563153c146101d7578063ed653164146101f3578063fe25e00a1461020f576100a7565b8063012f52ee146100ab5780631c9c088a146100e157806334b25ee2146100fd578063356f9dfd146101195780633e413bee14610135575b5f5ffd5b6100c560048036038101906100c0919061170a565b61022d565b6040516100d89796959493929190611866565b60405180910390f35b6100fb60048036038101906100f69190611904565b61033b565b005b61011760048036038101906101129190611964565b61040d565b005b610133600480360381019061012e919061170a565b610722565b005b61013d6109de565b60405161014a91906119fd565b60405180910390f35b61016d60048036038101906101689190611a77565b610a02565b60405161017a9190611afb565b60405180910390f35b61018b610dbe565b6040516101989190611afb565b60405180910390f35b6101bb60048036038101906101b6919061170a565b610dc4565b6040516101ce9796959493929190611866565b60405180910390f35b6101f160048036038101906101ec919061170a565b610eef565b005b61020d6004803603810190610208919061170a565b6110d6565b005b610217611318565b6040516102249190611b14565b60405180910390f35b6001602052805f5260405f205f91509050805f015f9054906101000a900473ffffffffffffffffffffffffffffffffffffffff1690806001015f9054906101000a900473ffffffffffffffffffffffffffffffffffffffff1690806002015490806003015f9054906101000a900460ff16908060040180546102ae90611b5a565b80601f01602080910402602001604051908101604052809291908181526020018280546102da90611b5a565b80156103255780601f106102fc57610100808354040283529160200191610325565b820191905f5260205f20905b81548152906001019060200180831161030857829003601f168201915b5050505050908060050154908060060154905087565b60035f9054906101000a900473ffffffffffffffffffffffffffffffffffffffff1673ffffffffffffffffffffffffffffffffffffffff163373ffffffffffffffffffffffffffffffffffffffff16146103ca576040517f08c379a00000000000000000000000000000000000000000000000000000000081526004016103c190611bd4565b60405180910390fd5b8060035f6101000a81548173ffffffffffffffffffffffffffffffffffffffff021916908373ffffffffffffffffffffffffffffffffffffffff16021790555050565b61041561133d565b60035f9054906101000a900473ffffffffffffffffffffffffffffffffffffffff1673ffffffffffffffffffffffffffffffffffffffff163373ffffffffffffffffffffffffffffffffffffffff16146104a4576040517f08c379a000000000000000000000000000000000000000000000000000000000815260040161049b90611bd4565b60405180910390fd5b5f60015f8481526020019081526020015f2090506003808111156104cb576104ca611783565b5b816003015f9054906101000a900460ff1660038111156104ee576104ed611783565b5b1461052e576040517f08c379a000000000000000000000000000000000000000000000000000000000815260040161052590611c3c565b60405180910390fd5b5f82156105fe576001826003015f6101000a81548160ff0219169083600381111561055c5761055b611783565b5b02179055506105d3826001015f9054906101000a900473ffffffffffffffffffffffffffffffffffffffff1683600201547f000000000000000000000000000000000000000000000000000000000000000073ffffffffffffffffffffffffffffffffffffffff166113819092919063ffffffff16565b816001015f9054906101000a900473ffffffffffffffffffffffffffffffffffffffff1690506106c1565b6002826003015f6101000a81548160ff0219169083600381111561062557610624611783565b5b021790555061069b825f015f9054906101000a900473ffffffffffffffffffffffffffffffffffffffff1683600201547f000000000000000000000000000000000000000000000000000000000000000073ffffffffffffffffffffffffffffffffffffffff166113819092919063ffffffff16565b815f015f9054906101000a900473ffffffffffffffffffffffffffffffffffffffff1690505b8073ffffffffffffffffffffffffffffffffffffffff16847fdf0baf5489595ea17a097d16827d60793e2f57f3b85a982e5d7e02838b841ee6846002015460405161070c9190611afb565b60405180910390a3505061071e611400565b5050565b61072a61133d565b5f60015f8381526020019081526020015f2090505f600381111561075157610750611783565b5b816003015f9054906101000a900460ff16600381111561077457610773611783565b5b146107b4576040517f08c379a00000000000000000000000000000000000000000000000000000000081526004016107ab90611ca4565b60405180910390fd5b5f816001015f9054906101000a900473ffffffffffffffffffffffffffffffffffffffff1673ffffffffffffffffffffffffffffffffffffffff163373ffffffffffffffffffffffffffffffffffffffff16148061087d5750815f015f9054906101000a900473ffffffffffffffffffffffffffffffffffffffff1673ffffffffffffffffffffffffffffffffffffffff163373ffffffffffffffffffffffffffffffffffffffff1614801561086d57505f8260060154115b801561087c5750816006015442115b5b9050806108bf576040517f08c379a00000000000000000000000000000000000000000000000000000000081526004016108b690611d0c565b60405180910390fd5b6002826003015f6101000a81548160ff021916908360038111156108e6576108e5611783565b5b021790555061095c825f015f9054906101000a900473ffffffffffffffffffffffffffffffffffffffff1683600201547f000000000000000000000000000000000000000000000000000000000000000073ffffffffffffffffffffffffffffffffffffffff166113819092919063ffffffff16565b815f015f9054906101000a900473ffffffffffffffffffffffffffffffffffffffff1673ffffffffffffffffffffffffffffffffffffffff16837feac97bc1917fcedc984e3d0671d4e83b359890323d5d1c2de32b28d17c356ced84600201546040516109c99190611afb565b60405180910390a350506109db611400565b50565b7f000000000000000000000000000000000000000000000000000000000000000081565b5f610a0b61133d565b5f73ffffffffffffffffffffffffffffffffffffffff168673ffffffffffffffffffffffffffffffffffffffff1603610a79576040517f08c379a0000000000000000000000000000000000000000000000000000000008152600401610a7090611d74565b60405180910390fd5b3373ffffffffffffffffffffffffffffffffffffffff168673ffffffffffffffffffffffffffffffffffffffff1603610ae7576040517f08c379a0000000000000000000000000000000000000000000000000000000008152600401610ade90611ddc565b60405180910390fd5b5f8511610b29576040517f08c379a0000000000000000000000000000000000000000000000000000000008152600401610b2090611e44565b60405180910390fd5b610b763330877f000000000000000000000000000000000000000000000000000000000000000073ffffffffffffffffffffffffffffffffffffffff16611409909392919063ffffffff16565b60025f815480929190610b8890611e8f565b9190505590506040518060e001604052803373ffffffffffffffffffffffffffffffffffffffff1681526020018773ffffffffffffffffffffffffffffffffffffffff1681526020018681526020015f6003811115610bea57610be9611783565b5b815260200185858080601f0160208091040260200160405190810160405280939291908181526020018383808284375f81840152601f19601f8201169050808301925050505050505081526020014281526020018381525060015f8381526020019081526020015f205f820151815f015f6101000a81548173ffffffffffffffffffffffffffffffffffffffff021916908373ffffffffffffffffffffffffffffffffffffffff1602179055506020820151816001015f6101000a81548173ffffffffffffffffffffffffffffffffffffffff021916908373ffffffffffffffffffffffffffffffffffffffff160217905550604082015181600201556060820151816003015f6101000a81548160ff02191690836003811115610d1157610d10611783565b5b02179055506080820151816004019081610d2b91906120ab565b5060a0820151816005015560c082015181600601559050508573ffffffffffffffffffffffffffffffffffffffff163373ffffffffffffffffffffffffffffffffffffffff16827f079316c6cb044ce8147d3a031eb8c26e06754da3a9393a80d7619a0e1269675f888888604051610da5939291906121b4565b60405180910390a4610db5611400565b95945050505050565b60025481565b5f5f5f5f60605f5f5f60015f8a81526020019081526020015f209050805f015f9054906101000a900473ffffffffffffffffffffffffffffffffffffffff16816001015f9054906101000a900473ffffffffffffffffffffffffffffffffffffffff168260020154836003015f9054906101000a900460ff168460040185600501548660060154828054610e5790611b5a565b80601f0160208091040260200160405190810160405280929190818152602001828054610e8390611b5a565b8015610ece5780601f10610ea557610100808354040283529160200191610ece565b820191905f5260205f20905b815481529060010190602001808311610eb157829003601f168201915b50505050509250975097509750975097509750975050919395979092949650565b5f60015f8381526020019081526020015f2090505f6003811115610f1657610f15611783565b5b816003015f9054906101000a900460ff166003811115610f3957610f38611783565b5b14610f79576040517f08c379a0000000000000000000000000000000000000000000000000000000008152600401610f7090611ca4565b60405180910390fd5b805f015f9054906101000a900473ffffffffffffffffffffffffffffffffffffffff1673ffffffffffffffffffffffffffffffffffffffff163373ffffffffffffffffffffffffffffffffffffffff1614806110235750806001015f9054906101000a900473ffffffffffffffffffffffffffffffffffffffff1673ffffffffffffffffffffffffffffffffffffffff163373ffffffffffffffffffffffffffffffffffffffff16145b611062576040517f08c379a00000000000000000000000000000000000000000000000000000000081526004016110599061222e565b60405180910390fd5b6003816003015f6101000a81548160ff0219169083600381111561108957611088611783565b5b02179055503373ffffffffffffffffffffffffffffffffffffffff16827fc25e2b14e82d9713d1570e77d6549051cc07e59f7f354600ce0e0c0f2aa29b0e60405160405180910390a35050565b6110de61133d565b5f60015f8381526020019081526020015f2090505f600381111561110557611104611783565b5b816003015f9054906101000a900460ff16600381111561112857611127611783565b5b14611168576040517f08c379a000000000000000000000000000000000000000000000000000000000815260040161115f90611ca4565b60405180910390fd5b805f015f9054906101000a900473ffffffffffffffffffffffffffffffffffffffff1673ffffffffffffffffffffffffffffffffffffffff163373ffffffffffffffffffffffffffffffffffffffff16146111f8576040517f08c379a00000000000000000000000000000000000000000000000000000000081526004016111ef90612296565b60405180910390fd5b6001816003015f6101000a81548160ff0219169083600381111561121f5761121e611783565b5b0217905550611296816001015f9054906101000a900473ffffffffffffffffffffffffffffffffffffffff1682600201547f000000000000000000000000000000000000000000000000000000000000000073ffffffffffffffffffffffffffffffffffffffff166113819092919063ffffffff16565b806001015f9054906101000a900473ffffffffffffffffffffffffffffffffffffffff1673ffffffffffffffffffffffffffffffffffffffff16827f6244ed823ca6be0f11bc890c3fafcf3c29cb23420c14243642e930b5e07e6d0a83600201546040516113049190611afb565b60405180910390a350611315611400565b50565b60035f9054906101000a900473ffffffffffffffffffffffffffffffffffffffff1681565b60025f5403611378576040517f3ee5aeb500000000000000000000000000000000000000000000000000000000815260040160405180910390fd5b60025f81905550565b6113fb838473ffffffffffffffffffffffffffffffffffffffff1663a9059cbb85856040516024016113b49291906122b4565b604051602081830303815290604052915060e01b6020820180517bffffffffffffffffffffffffffffffffffffffffffffffffffffffff838183161783525050505061148b565b505050565b60015f81905550565b611485848573ffffffffffffffffffffffffffffffffffffffff166323b872dd86868660405160240161143e939291906122db565b604051602081830303815290604052915060e01b6020820180517bffffffffffffffffffffffffffffffffffffffffffffffffffffffff838183161783525050505061148b565b50505050565b5f6114b5828473ffffffffffffffffffffffffffffffffffffffff1661152090919063ffffffff16565b90505f8151141580156114d95750808060200190518101906114d79190612324565b155b1561151b57826040517f5274afe70000000000000000000000000000000000000000000000000000000081526004016115129190611b14565b60405180910390fd5b505050565b606061152d83835f611535565b905092915050565b60608147101561157c57306040517fcd7860590000000000000000000000000000000000000000000000000000000081526004016115739190611b14565b60405180910390fd5b5f5f8573ffffffffffffffffffffffffffffffffffffffff1684866040516115a49190612393565b5f6040518083038185875af1925050503d805f81146115de576040519150601f19603f3d011682016040523d82523d5f602084013e6115e3565b606091505b50915091506115f38683836115fe565b925050509392505050565b6060826116135761160e8261168b565b611683565b5f825114801561163957505f8473ffffffffffffffffffffffffffffffffffffffff163b145b1561167b57836040517f9996b3150000000000000000000000000000000000000000000000000000000081526004016116729190611b14565b60405180910390fd5b819050611684565b5b9392505050565b5f8151111561169d5780518082602001fd5b6040517f1425ea4200000000000000000000000000000000000000000000000000000000815260040160405180910390fd5b5f5ffd5b5f5ffd5b5f819050919050565b6116e9816116d7565b81146116f3575f5ffd5b50565b5f81359050611704816116e0565b92915050565b5f6020828403121561171f5761171e6116cf565b5b5f61172c848285016116f6565b91505092915050565b5f73ffffffffffffffffffffffffffffffffffffffff82169050919050565b5f61175e82611735565b9050919050565b61176e81611754565b82525050565b61177d816116d7565b82525050565b7f4e487b71000000000000000000000000000000000000000000000000000000005f52602160045260245ffd5b600481106117c1576117c0611783565b5b50565b5f8190506117d1826117b0565b919050565b5f6117e0826117c4565b9050919050565b6117f0816117d6565b82525050565b5f81519050919050565b5f82825260208201905092915050565b8281835e5f83830152505050565b5f601f19601f8301169050919050565b5f611838826117f6565b6118428185611800565b9350611852818560208601611810565b61185b8161181e565b840191505092915050565b5f60e0820190506118795f83018a611765565b6118866020830189611765565b6118936040830188611774565b6118a060608301876117e7565b81810360808301526118b2818661182e565b90506118c160a0830185611774565b6118ce60c0830184611774565b98975050505050505050565b6118e381611754565b81146118ed575f5ffd5b50565b5f813590506118fe816118da565b92915050565b5f60208284031215611919576119186116cf565b5b5f611926848285016118f0565b91505092915050565b5f8115159050919050565b6119438161192f565b811461194d575f5ffd5b50565b5f8135905061195e8161193a565b92915050565b5f5f6040838503121561197a576119796116cf565b5b5f611987858286016116f6565b925050602061199885828601611950565b9150509250929050565b5f819050919050565b5f6119c56119c06119bb84611735565b6119a2565b611735565b9050919050565b5f6119d6826119ab565b9050919050565b5f6119e7826119cc565b9050919050565b6119f7816119dd565b82525050565b5f602082019050611a105f8301846119ee565b92915050565b5f5ffd5b5f5ffd5b5f5ffd5b5f5f83601f840112611a3757611a36611a16565b5b8235905067ffffffffffffffff811115611a5457611a53611a1a565b5b602083019150836001820283011115611a7057611a6f611a1e565b5b9250929050565b5f5f5f5f5f60808688031215611a9057611a8f6116cf565b5b5f611a9d888289016118f0565b9550506020611aae888289016116f6565b945050604086013567ffffffffffffffff811115611acf57611ace6116d3565b5b611adb88828901611a22565b93509350506060611aee888289016116f6565b9150509295509295909350565b5f602082019050611b0e5f830184611774565b92915050565b5f602082019050611b275f830184611765565b92915050565b7f4e487b71000000000000000000000000000000000000000000000000000000005f52602260045260245ffd5b5f6002820490506001821680611b7157607f821691505b602082108103611b8457611b83611b2d565b5b50919050565b7f4f6e6c79206172626974657200000000000000000000000000000000000000005f82015250565b5f611bbe600c83611800565b9150611bc982611b8a565b602082019050919050565b5f6020820190508181035f830152611beb81611bb2565b9050919050565b7f4e6f7420646973707574656400000000000000000000000000000000000000005f82015250565b5f611c26600c83611800565b9150611c3182611bf2565b602082019050919050565b5f6020820190508181035f830152611c5381611c1a565b9050919050565b7f457363726f77206e6f74206163746976650000000000000000000000000000005f82015250565b5f611c8e601183611800565b9150611c9982611c5a565b602082019050919050565b5f6020820190508181035f830152611cbb81611c82565b9050919050565b7f43616e6e6f7420726566756e64000000000000000000000000000000000000005f82015250565b5f611cf6600d83611800565b9150611d0182611cc2565b602082019050919050565b5f6020820190508181035f830152611d2381611cea565b9050919050565b7f496e76616c69642073656c6c65720000000000000000000000000000000000005f82015250565b5f611d5e600e83611800565b9150611d6982611d2a565b602082019050919050565b5f6020820190508181035f830152611d8b81611d52565b9050919050565b7f43616e6e6f7420657363726f7720746f2073656c6600000000000000000000005f82015250565b5f611dc6601583611800565b9150611dd182611d92565b602082019050919050565b5f6020820190508181035f830152611df381611dba565b9050919050565b7f416d6f756e74206d757374206265203e203000000000000000000000000000005f82015250565b5f611e2e601283611800565b9150611e3982611dfa565b602082019050919050565b5f6020820190508181035f830152611e5b81611e22565b9050919050565b7f4e487b71000000000000000000000000000000000000000000000000000000005f52601160045260245ffd5b5f611e99826116d7565b91507fffffffffffffffffffffffffffffffffffffffffffffffffffffffffffffffff8203611ecb57611eca611e62565b5b600182019050919050565b7f4e487b71000000000000000000000000000000000000000000000000000000005f52604160045260245ffd5b5f819050815f5260205f209050919050565b5f6020601f8301049050919050565b5f82821b905092915050565b5f60088302611f5f7fffffffffffffffffffffffffffffffffffffffffffffffffffffffffffffffff82611f24565b611f698683611f24565b95508019841693508086168417925050509392505050565b5f611f9b611f96611f91846116d7565b6119a2565b6116d7565b9050919050565b5f819050919050565b611fb483611f81565b611fc8611fc082611fa2565b848454611f30565b825550505050565b5f5f905090565b611fdf611fd0565b611fea818484611fab565b505050565b5f5b82811015612010576120055f828401611fd7565b600181019050611ff1565b505050565b601f82111561206357828211156120625761202f81611f03565b61203883611f15565b61204185611f15565b602086101561204e575f90505b80830161205d82840382611fef565b505050505b5b505050565b5f82821c905092915050565b5f6120835f1984600802612068565b1980831691505092915050565b5f61209b8383612074565b9150826002028217905092915050565b6120b4826117f6565b67ffffffffffffffff8111156120cd576120cc611ed6565b5b6120d78254611b5a565b6120e2828285612015565b5f60209050601f831160018114612113575f8415612101578287015190505b61210b8582612090565b865550612172565b601f19841661212186611f03565b5f5b8281101561214857848901518255600182019150602085019450602081019050612123565b868310156121655784890151612161601f891682612074565b8355505b6001600288020188555050505b505050505050565b828183375f83830152505050565b5f6121938385611800565b93506121a083858461217a565b6121a98361181e565b840190509392505050565b5f6040820190506121c75f830186611774565b81810360208301526121da818486612188565b9050949350505050565b7f4e6f7420706172747920746f20657363726f77000000000000000000000000005f82015250565b5f612218601383611800565b9150612223826121e4565b602082019050919050565b5f6020820190508181035f8301526122458161220c565b9050919050565b7f4f6e6c792062757965722063616e2072656c65617365000000000000000000005f82015250565b5f612280601683611800565b915061228b8261224c565b602082019050919050565b5f6020820190508181035f8301526122ad81612274565b9050919050565b5f6040820190506122c75f830185611765565b6122d46020830184611774565b9392505050565b5f6060820190506122ee5f830186611765565b6122fb6020830185611765565b6123086040830184611774565b949350505050565b5f8151905061231e8161193a565b92915050565b5f60208284031215612339576123386116cf565b5b5f61234684828501612310565b91505092915050565b5f81519050919050565b5f81905092915050565b5f61236d8261234f565b6123778185612359565b9350612387818560208601611810565b80840191505092915050565b5f61239e8284612363565b91508190509291505056fea26469706673582212208e8a5e96e8b0b4e80fda254b0041560be6e017bbbc0dec642130d70ba8b3957864736f6c63430008210033","linkReferences":{}},"methodIdentifiers":{"arbiter()":"fe25e00a","createEscrow(address,uint256,string,uint256)":"66e3aad6","disputeEscrow(uint256)":"b563153c","escrowCount()":"675ac67a","escrows(uint256)":"012f52ee","getEscrow(uint256)":"7d19e596","refundEscrow(uint256)":"356f9dfd","releaseEscrow(uint256)":"ed653164","resolveDispute(uint256,bool)":"34b25ee2","setArbiter(address)":"1c9c088a","usdc()":"3e413bee"},"id":5}